{
  "_format": "hh3-artifact-1",
  "contractName": "MarketplaceNFT",
  "sourceName": "contracts/MarketplaceNFT.sol",
  "abi": [
    {
      "inputs": [],
      "stateMutability": "nonpayable",
      "type": "constructor"
    },
    {
      "inputs": [],
      "name": "ERC721EnumerableForbiddenBatchMint",
      "type": "error"
    },
    {
      "inputs": [
        {
          "internalType": "address",
          "name": "sender",
          "type": "address"
        },
        {
          "internalType": "uint256",
          "name": "tokenId",
          "type": "uint256"
        },
        {
          "internalType": "address",
          "name": "owner",
          "type": "address"
        }
      ],
      "name": "ERC721IncorrectOwner",
      "type": "error"
    },
    {
      "inputs": [
        {
          "internalType": "address",
          "name": "operator",
          "type": "address"
        },
        {
          "internalType": "uint256",
          "name": "tokenId",
          "type": "uint256"
        }
      ],
      "name": "ERC721InsufficientApproval",
      "type": "error"
    },
    {
      "inputs": [
        {
          "internalType": "address",
          "name": "approver",
          "type": "address"
        }
      ],
      "name": "ERC721InvalidApprover",
      "type": "error"
    },
    {
      "inputs": [
        {
          "internalType": "address",
          "name": "operator",
          "type": "address"
        }
      ],
      "name": "ERC721InvalidOperator",
      "type": "error"
    },
    {
      "inputs": [
        {
          "internalType": "address",
          "name": "owner",
          "type": "address"
        }
      ],
      "name": "ERC721InvalidOwner",
      "type": "error"
    },
    {
      "inputs": [
        {
          "internalType": "address",
          "name": "receiver",
          "type": "address"
        }
      ],
      "name": "ERC721InvalidReceiver",
      "type": "error"
    },
    {
      "inputs": [
        {
          "internalType": "address",
          "name": "sender",
          "type": "address"
        }
      ],
      "name": "ERC721InvalidSender",
      "type": "error"
    },
    {
      "inputs": [
        {
          "internalType": "uint256",
          "name": "tokenId",
          "type": "uint256"
        }
      ],
      "name": "ERC721NonexistentToken",
      "type": "error"
    },
    {
      "inputs": [
        {
          "internalType": "address",
          "name": "owner",
          "type": "address"
        },
        {
          "internalType": "uint256",
          "name": "index",
          "type": "uint256"
        }
      ],
      "name": "ERC721OutOfBoundsIndex",
      "type": "error"
    },
    {
      "inputs": [
        {
          "internalType": "address",
          "name": "owner",
          "type": "address"
        }
      ],
      "name": "OwnableInvalidOwner",
      "type": "error"
    },
    {
      "inputs": [
        {
          "internalType": "address",
          "name": "account",
          "type": "address"
        }
      ],
      "name": "OwnableUnauthorizedAccount",
      "type": "error"
    },
    {
      "anonymous": false,
      "inputs": [
        {
          "indexed": true,
          "internalType": "address",
          "name": "owner",
          "type": "address"
        },
        {
          "indexed": true,
          "internalType": "address",
          "name": "approved",
          "type": "address"
        },
        {
          "indexed": true,
          "internalType": "uint256",
          "name": "tokenId",
          "type": "uint256"
        }
      ],
      "name": "Approval",
      "type": "event"
    },
    {
      "anonymous": false,
      "inputs": [
        {
          "indexed": true,
          "internalType": "address",
          "name": "owner",
          "type": "address"
        },
        {
          "indexed": true,
          "internalType": "address",
          "name": "operator",
          "type": "address"
        },
        {
          "indexed": false,
          "internalType": "bool",
          "name": "approved",
          "type": "bool"
        }
      ],
      "name": "ApprovalForAll",
      "type": "event"
    },
    {
      "anonymous": false,
      "inputs": [
        {
          "indexed": false,
          "internalType": "uint256",
          "name": "_fromTokenId",
          "type": "uint256"
        },
        {
          "indexed": false,
          "internalType": "uint256",
          "name": "_toTokenId",
          "type": "uint256"
        }
      ],
      "name": "BatchMetadataUpdate",
      "type": "event"
    },
    {
      "anonymous": false,
      "inputs": [
        {
          "indexed": false,
          "internalType": "uint256",
          "name": "_tokenId",
          "type": "uint256"
        }
      ],
      "name": "MetadataUpdate",
      "type": "event"
    },
    {
      "anonymous": false,
      "inputs": [
        {
          "indexed": true,
          "internalType": "address",
          "name": "previousOwner",
          "type": "address"
        },
        {
          "indexed": true,
          "internalType": "address",
          "name": "newOwner",
          "type": "address"
        }
      ],
      "name": "OwnershipTransferred",
      "type": "event"
    },
    {
      "anonymous": false,
      "inputs": [
        {
          "indexed": true,
          "internalType": "address",
          "name": "from",
          "type": "address"
        },
        {
          "indexed": true,
          "internalType": "address",
          "name": "to",
          "type": "address"
        },
        {
          "indexed": true,
          "internalType": "uint256",
          "name": "tokenId",
          "type": "uint256"
        }
      ],
      "name": "Transfer",
      "type": "event"
    },
    {
      "inputs": [
        {
          "internalType": "address",
          "name": "to",
          "type": "address"
        },
        {
          "internalType": "uint256",
          "name": "tokenId",
          "type": "uint256"
        }
      ],
      "name": "approve",
      "outputs": [],
      "stateMutability": "nonpayable",
      "type": "function"
    },
    {
      "inputs": [
        {
          "internalType": "address",
          "name": "owner",
          "type": "address"
        }
      ],
      "name": "balanceOf",
      "outputs": [
        {
          "internalType": "uint256",
          "name": "",
          "type": "uint256"
        }
      ],
      "stateMutability": "view",
      "type": "function"
    },
    {
      "inputs": [
        {
          "internalType": "uint256",
          "name": "tokenId",
          "type": "uint256"
        }
      ],
      "name": "getApproved",
      "outputs": [
        {
          "internalType": "address",
          "name": "",
          "type": "address"
        }
      ],
      "stateMutability": "view",
      "type": "function"
    },
    {
      "inputs": [
        {
          "internalType": "address",
          "name": "owner",
          "type": "address"
        },
        {
          "internalType": "address",
          "name": "operator",
          "type": "address"
        }
      ],
      "name": "isApprovedForAll",
      "outputs": [
        {
          "internalType": "bool",
          "name": "",
          "type": "bool"
        }
      ],
      "stateMutability": "view",
      "type": "function"
    },
    {
      "inputs": [
        {
          "internalType": "address",
          "name": "to",
          "type": "address"
        },
        {
          "internalType": "string",
          "name": "uri",
          "type": "string"
        }
      ],
      "name": "mint",
      "outputs": [],
      "stateMutability": "nonpayable",
      "type": "function"
    },
    {
      "inputs": [],
      "name": "name",
      "outputs": [
        {
          "internalType": "string",
          "name": "",
          "type": "string"
        }
      ],
      "stateMutability": "view",
      "type": "function"
    },
    {
      "inputs": [],
      "name": "nextTokenId",
      "outputs": [
        {
          "internalType": "uint256",
          "name": "",
          "type": "uint256"
        }
      ],
      "stateMutability": "view",
      "type": "function"
    },
    {
      "inputs": [],
      "name": "owner",
      "outputs": [
        {
          "internalType": "address",
          "name": "",
          "type": "address"
        }
      ],
      "stateMutability": "view",
      "type": "function"
    },
    {
      "inputs": [
        {
          "internalType": "uint256",
          "name": "tokenId",
          "type": "uint256"
        }
      ],
      "name": "ownerOf",
      "outputs": [
        {
          "internalType": "address",
          "name": "",
          "type": "address"
        }
      ],
      "stateMutability": "view",
      "type": "function"
    },
    {
      "inputs": [],
      "name": "renounceOwnership",
      "outputs": [],
      "stateMutability": "nonpayable",
      "type": "function"
    },
    {
      "inputs": [
        {
          "internalType": "address",
          "name": "from",
          "type": "address"
        },
        {
          "internalType": "address",
          "name": "to",
          "type": "address"
        },
        {
          "internalType": "uint256",
          "name": "tokenId",
          "type": "uint256"
        }
      ],
      "name": "safeTransferFrom",
      "outputs": [],
      "stateMutability": "nonpayable",
      "type": "function"
    },
    {
      "inputs": [
        {
          "internalType": "address",
          "name": "from",
          "type": "address"
        },
        {
          "internalType": "address",
          "name": "to",
          "type": "address"
        },
        {
          "internalType": "uint256",
          "name": "tokenId",
          "type": "uint256"
        },
        {
          "internalType": "bytes",
          "name": "data",
          "type": "bytes"
        }
      ],
      "name": "safeTransferFrom",
      "outputs": [],
      "stateMutability": "nonpayable",
      "type": "function"
    },
    {
      "inputs": [
        {
          "internalType": "address",
          "name": "operator",
          "type": "address"
        },
        {
          "internalType": "bool",
          "name": "approved",
          "type": "bool"
        }
      ],
      "name": "setApprovalForAll",
      "outputs": [],
      "stateMutability": "nonpayable",
      "type": "function"
    },
    {
      "inputs": [
        {
          "internalType": "bytes4",
          "name": "interfaceId",
          "type": "bytes4"
        }
      ],
      "name": "supportsInterface",
      "outputs": [
        {
          "internalType": "bool",
          "name": "",
          "type": "bool"
        }
      ],
      "stateMutability": "view",
      "type": "function"
    },
    {
      "inputs": [],
      "name": "symbol",
      "outputs": [
        {
          "internalType": "string",
          "name": "",
          "type": "string"
        }
      ],
      "stateMutability": "view",
      "type": "function"
    },
    {
      "inputs": [
        {
          "internalType": "uint256",
          "name": "index",
          "type": "uint256"
        }
      ],
      "name": "tokenByIndex",
      "outputs": [
        {
          "internalType": "uint256",
          "name": "",
          "type": "uint256"
        }
      ],
      "stateMutability": "view",
      "type": "function"
    },
    {
      "inputs": [
        {
          "internalType": "address",
          "name": "owner",
          "type": "address"
        },
        {
          "internalType": "uint256",
          "name": "index",
          "type": "uint256"
        }
      ],
      "name": "tokenOfOwnerByIndex",
      "outputs": [
        {
          "internalType": "uint256",
          "name": "",
          "type": "uint256"
        }
      ],
      "stateMutability": "view",
      "type": "function"
    },
    {
      "inputs": [
        {
          "internalType": "uint256",
          "name": "tokenId",
          "type": "uint256"
        }
      ],
      "name": "tokenURI",
      "outputs": [
        {
          "internalType": "string",
          "name": "",
          "type": "string"
        }
      ],
      "stateMutability": "view",
      "type": "function"
    },
    {
      "inputs": [],
      "name": "totalSupply",
      "outputs": [
        {
          "internalType": "uint256",
          "name": "",
          "type": "uint256"
        }
      ],
      "stateMutability": "view",
      "type": "function"
    },
    {
      "inputs": [
        {
          "internalType": "address",
          "name": "from",
          "type": "address"
        },
        {
          "internalType": "address",
          "name": "to",
          "type": "address"
        },
        {
          "internalType": "uint256",
          "name": "tokenId",
          "type": "uint256"
        }
      ],
      "name": "transferFrom",
      "outputs": [],
      "stateMutability": "nonpayable",
      "type": "function"
    },
    {
      "inputs": [
        {
          "internalType": "address",
          "name": "from",
          "type": "address"
        },
        {
          "internalType": "address",
          "name": "to",
          "type": "address"
        },
        {
          "internalType": "uint256",
          "name": "tokenId",
          "type": "uint256"
        }
      ],
      "name": "transferNFT",
      "outputs": [],
      "stateMutability": "nonpayable",
      "type": "function"
    },
    {
      "inputs": [
        {
          "internalType": "address",
          "name": "newOwner",
          "type": "address"
        }
      ],
      "name": "transferOwnership",
      "outputs": [],
      "stateMutability": "nonpayable",
      "type": "function"
    }
  ],
  "bytecode": "0x608060405234801561000f575f5ffd5b50336040518060400160405280600e81526020016d13585c9ad95d1c1b1858d953919560921b81525060405180604001604052806005815260200164135413919560da1b815250815f90816100649190610199565b5060016100718282610199565b5050506001600160a01b0381166100a157604051631e4fbdf760e01b81525f600482015260240160405180910390fd5b6100aa816100b0565b50610253565b600b80546001600160a01b038381166001600160a01b0319831681179093556040519116919082907f8be0079c531659141344cd1fd0a4f28419497f9722a3daafe3b4186f6b6457e0905f90a35050565b634e487b7160e01b5f52604160045260245ffd5b600181811c9082168061012957607f821691505b60208210810361014757634e487b7160e01b5f52602260045260245ffd5b50919050565b601f82111561019457805f5260205f20601f840160051c810160208510156101725750805b601f840160051c820191505b81811015610191575f815560010161017e565b50505b505050565b81516001600160401b038111156101b2576101b2610101565b6101c6816101c08454610115565b8461014d565b6020601f8211600181146101f8575f83156101e15750848201515b5f19600385901b1c1916600184901b178455610191565b5f84815260208120601f198516915b828110156102275787850151825560209485019460019092019101610207565b508482101561024457868401515f19600387901b60f8161c191681555b50505050600190811b01905550565b6117af806102605f395ff3fe608060405234801561000f575f5ffd5b506004361061013d575f3560e01c806370a08231116100b4578063a22cb46511610079578063a22cb4651461027f578063b88d4fde14610292578063c87b56dd146102a5578063d0def521146102b8578063e985e9c5146102cb578063f2fde38b146102de575f5ffd5b806370a0823114610242578063715018a61461025557806375794a3c1461025d5780638da5cb5b1461026657806395d89b4114610277575f5ffd5b806323b872dd1161010557806323b872dd146101d05780632f745c59146101e357806342842e0e146101f65780634f6ccce7146102095780636352211e1461021c57806369e9cae11461022f575f5ffd5b806301ffc9a71461014157806306fdde0314610169578063081812fc1461017e578063095ea7b3146101a957806318160ddd146101be575b5f5ffd5b61015461014f366004611287565b6102f1565b60405190151581526020015b60405180910390f35b610171610301565b60405161016091906112d0565b61019161018c3660046112e2565b610390565b6040516001600160a01b039091168152602001610160565b6101bc6101b7366004611314565b6103b7565b005b6008545b604051908152602001610160565b6101bc6101de36600461133c565b6103c6565b6101c26101f1366004611314565b610454565b6101bc61020436600461133c565b6104b7565b6101c26102173660046112e2565b6104d6565b61019161022a3660046112e2565b61052b565b6101bc61023d36600461133c565b610535565b6101c2610250366004611376565b610584565b6101bc6105c9565b6101c2600c5481565b600b546001600160a01b0316610191565b6101716105dc565b6101bc61028d36600461138f565b6105eb565b6101bc6102a0366004611453565b6105f6565b6101716102b33660046112e2565b61060e565b6101bc6102c63660046114ca565b610619565b6101546102d9366004611528565b610651565b6101bc6102ec366004611376565b61067e565b5f6102fb826106bb565b92915050565b60605f805461030f90611559565b80601f016020809104026020016040519081016040528092919081815260200182805461033b90611559565b80156103865780601f1061035d57610100808354040283529160200191610386565b820191905f5260205f20905b81548152906001019060200180831161036957829003601f168201915b5050505050905090565b5f61039a826106df565b505f828152600460205260409020546001600160a01b03166102fb565b6103c2828233610717565b5050565b6001600160a01b0382166103f457604051633250574960e11b81525f60048201526024015b60405180910390fd5b5f610400838333610724565b9050836001600160a01b0316816001600160a01b03161461044e576040516364283d7b60e01b81526001600160a01b03808616600483015260248201849052821660448201526064016103eb565b50505050565b5f61045e83610584565b821061048f5760405163295f44f760e21b81526001600160a01b0384166004820152602481018390526044016103eb565b506001600160a01b03919091165f908152600660209081526040808320938352929052205490565b6104d183838360405180602001604052805f8152506105f6565b505050565b5f6104e060085490565b82106105085760405163295f44f760e21b81525f6004820152602481018390526044016103eb565b6008828154811061051b5761051b611591565b905f5260205f2001549050919050565b5f6102fb826106df565b336001600160a01b038416146105795760405162461bcd60e51b81526020600482015260096024820152682737ba1037bbb732b960b91b60448201526064016103eb565b6104d18383836104b7565b5f6001600160a01b0382166105ae576040516322718ad960e21b81525f60048201526024016103eb565b506001600160a01b03165f9081526003602052604090205490565b6105d1610738565b6105da5f610765565b565b60606001805461030f90611559565b6103c23383836107b6565b6106018484846103c6565b61044e3385858585610854565b60606102fb8261097c565b610621610738565b61062d82600c54610a7f565b610639600c5482610ae0565b600c8054905f610648836115b9565b91905055505050565b6001600160a01b039182165f90815260056020908152604080832093909416825291909152205460ff1690565b610686610738565b6001600160a01b0381166106af57604051631e4fbdf760e01b81525f60048201526024016103eb565b6106b881610765565b50565b5f6001600160e01b03198216632483248360e11b14806102fb57506102fb82610b2f565b5f818152600260205260408120546001600160a01b0316806102fb57604051637e27328960e01b8152600481018490526024016103eb565b6104d18383836001610b53565b5f610730848484610c57565b949350505050565b600b546001600160a01b031633146105da5760405163118cdaa760e01b81523360048201526024016103eb565b600b80546001600160a01b038381166001600160a01b0319831681179093556040519116919082907f8be0079c531659141344cd1fd0a4f28419497f9722a3daafe3b4186f6b6457e0905f90a35050565b6001600160a01b0382166107e857604051630b61174360e31b81526001600160a01b03831660048201526024016103eb565b6001600160a01b038381165f81815260056020908152604080832094871680845294825291829020805460ff191686151590811790915591519182527f17307eab39ab6107e8899845ad3d59bd9653f200f220920489ca2b5937696c31910160405180910390a3505050565b6001600160a01b0383163b1561097557604051630a85bd0160e11b81526001600160a01b0384169063150b7a02906108969088908890879087906004016115d1565b6020604051808303815f875af19250505080156108d0575060408051601f3d908101601f191682019092526108cd9181019061160d565b60015b610937573d8080156108fd576040519150601f19603f3d011682016040523d82523d5f602084013e610902565b606091505b5080515f0361092f57604051633250574960e11b81526001600160a01b03851660048201526024016103eb565b805160208201fd5b6001600160e01b03198116630a85bd0160e11b1461097357604051633250574960e11b81526001600160a01b03851660048201526024016103eb565b505b5050505050565b6060610987826106df565b505f828152600a6020526040812080546109a090611559565b80601f01602080910402602001604051908101604052809291908181526020018280546109cc90611559565b8015610a175780601f106109ee57610100808354040283529160200191610a17565b820191905f5260205f20905b8154815290600101906020018083116109fa57829003601f168201915b505050505090505f610a3360408051602081019091525f815290565b905080515f03610a44575092915050565b815115610a76578082604051602001610a5e92919061163f565b60405160208183030381529060405292505050919050565b61073084610d22565b6001600160a01b038216610aa857604051633250574960e11b81525f60048201526024016103eb565b5f610ab483835f610724565b90506001600160a01b038116156104d1576040516339e3563760e11b81525f60048201526024016103eb565b5f828152600a60205260409020610af78282611697565b506040518281527ff8e1a15aba9398e019f0b49df1a4fde98ee17ae345cb5f6b5e2c27f5033e8ce79060200160405180910390a15050565b5f6001600160e01b0319821663780e9d6360e01b14806102fb57506102fb82610d93565b8080610b6757506001600160a01b03821615155b15610c28575f610b76846106df565b90506001600160a01b03831615801590610ba25750826001600160a01b0316816001600160a01b031614155b8015610bb55750610bb38184610651565b155b15610bde5760405163a9fbf51f60e01b81526001600160a01b03841660048201526024016103eb565b8115610c265783856001600160a01b0316826001600160a01b03167f8c5be1e5ebec7d5bd14f71427d1e84f3dd0314c0f7b2291e5b200ac8c7c3b92560405160405180910390a45b505b50505f90815260046020526040902080546001600160a01b0319166001600160a01b0392909216919091179055565b5f5f610c64858585610de2565b90506001600160a01b038116610cc057610cbb84600880545f838152600960205260408120829055600182018355919091527ff3f7a9fe364faab93b216da50a3214154f22a0a2b415b23a84c8169e8b636ee30155565b610ce3565b846001600160a01b0316816001600160a01b031614610ce357610ce38185610ed4565b6001600160a01b038516610cff57610cfa84610f51565b610730565b846001600160a01b0316816001600160a01b031614610730576107308585610ff8565b6060610d2d826106df565b505f610d4360408051602081019091525f815290565b90505f815111610d615760405180602001604052805f815250610d8c565b80610d6b84611046565b604051602001610d7c92919061163f565b6040516020818303038152906040525b9392505050565b5f6001600160e01b031982166380ac58cd60e01b1480610dc357506001600160e01b03198216635b5e139f60e01b145b806102fb57506301ffc9a760e01b6001600160e01b03198316146102fb565b5f828152600260205260408120546001600160a01b0390811690831615610e0e57610e0e8184866110d6565b6001600160a01b03811615610e4857610e295f855f5f610b53565b6001600160a01b0381165f90815260036020526040902080545f190190555b6001600160a01b03851615610e76576001600160a01b0385165f908152600360205260409020805460010190555b5f8481526002602052604080822080546001600160a01b0319166001600160a01b0389811691821790925591518793918516917fddf252ad1be2c89b69c2b068fc378daa952ba7f163c4a11628f55a4df523b3ef91a4949350505050565b5f610ede83610584565b5f838152600760209081526040808320546001600160a01b0388168452600690925290912091925090818314610f33575f83815260208281526040808320548584528184208190558352600790915290208290555b5f938452600760209081526040808620869055938552525081205550565b6008545f90610f6290600190611752565b5f8381526009602052604081205460088054939450909284908110610f8957610f89611591565b905f5260205f20015490508060088381548110610fa857610fa8611591565b5f918252602080832090910192909255828152600990915260408082208490558582528120556008805480610fdf57610fdf611765565b600190038181905f5260205f20015f9055905550505050565b5f600161100484610584565b61100e9190611752565b6001600160a01b039093165f908152600660209081526040808320868452825280832085905593825260079052919091209190915550565b60605f6110528361113a565b60010190505f8167ffffffffffffffff811115611071576110716113c8565b6040519080825280601f01601f19166020018201604052801561109b576020820181803683370190505b5090508181016020015b5f19016f181899199a1a9b1b9c1cb0b131b232b360811b600a86061a8153600a85049450846110a557509392505050565b6110e1838383611211565b6104d1576001600160a01b03831661110f57604051637e27328960e01b8152600481018290526024016103eb565b60405163177e802f60e01b81526001600160a01b0383166004820152602481018290526044016103eb565b5f8072184f03e93ff9f4daa797ed6e38ed64bf6a1f0160401b83106111785772184f03e93ff9f4daa797ed6e38ed64bf6a1f0160401b830492506040015b6d04ee2d6d415b85acef810000000083106111a4576d04ee2d6d415b85acef8100000000830492506020015b662386f26fc1000083106111c257662386f26fc10000830492506010015b6305f5e10083106111da576305f5e100830492506008015b61271083106111ee57612710830492506004015b60648310611200576064830492506002015b600a83106102fb5760010192915050565b5f6001600160a01b038316158015906107305750826001600160a01b0316846001600160a01b0316148061124a575061124a8484610651565b806107305750505f908152600460205260409020546001600160a01b03908116911614919050565b6001600160e01b0319811681146106b8575f5ffd5b5f60208284031215611297575f5ffd5b8135610d8c81611272565b5f81518084528060208401602086015e5f602082860101526020601f19601f83011685010191505092915050565b602081525f610d8c60208301846112a2565b5f602082840312156112f2575f5ffd5b5035919050565b80356001600160a01b038116811461130f575f5ffd5b919050565b5f5f60408385031215611325575f5ffd5b61132e836112f9565b946020939093013593505050565b5f5f5f6060848603121561134e575f5ffd5b611357846112f9565b9250611365602085016112f9565b929592945050506040919091013590565b5f60208284031215611386575f5ffd5b610d8c826112f9565b5f5f604083850312156113a0575f5ffd5b6113a9836112f9565b9150602083013580151581146113bd575f5ffd5b809150509250929050565b634e487b7160e01b5f52604160045260245ffd5b5f5f67ffffffffffffffff8411156113f6576113f66113c8565b50604051601f19601f85018116603f0116810181811067ffffffffffffffff82111715611425576114256113c8565b60405283815290508082840185101561143c575f5ffd5b838360208301375f60208583010152509392505050565b5f5f5f5f60808587031215611466575f5ffd5b61146f856112f9565b935061147d602086016112f9565b925060408501359150606085013567ffffffffffffffff81111561149f575f5ffd5b8501601f810187136114af575f5ffd5b6114be878235602084016113dc565b91505092959194509250565b5f5f604083850312156114db575f5ffd5b6114e4836112f9565b9150602083013567ffffffffffffffff8111156114ff575f5ffd5b8301601f8101851361150f575f5ffd5b61151e858235602084016113dc565b9150509250929050565b5f5f60408385031215611539575f5ffd5b611542836112f9565b9150611550602084016112f9565b90509250929050565b600181811c9082168061156d57607f821691505b60208210810361158b57634e487b7160e01b5f52602260045260245ffd5b50919050565b634e487b7160e01b5f52603260045260245ffd5b634e487b7160e01b5f52601160045260245ffd5b5f600182016115ca576115ca6115a5565b5060010190565b6001600160a01b03858116825284166020820152604081018390526080606082018190525f90611603908301846112a2565b9695505050505050565b5f6020828403121561161d575f5ffd5b8151610d8c81611272565b5f81518060208401855e5f93019283525090919050565b5f61073061164d8386611628565b84611628565b601f8211156104d157805f5260205f20601f840160051c810160208510156116785750805b601f840160051c820191505b81811015610975575f8155600101611684565b815167ffffffffffffffff8111156116b1576116b16113c8565b6116c5816116bf8454611559565b84611653565b6020601f8211600181146116f7575f83156116e05750848201515b5f19600385901b1c1916600184901b178455610975565b5f84815260208120601f198516915b828110156117265787850151825560209485019460019092019101611706565b508482101561174357868401515f19600387901b60f8161c191681555b50505050600190811b01905550565b818103818111156102fb576102fb6115a5565b634e487b7160e01b5f52603160045260245ffdfea2646970667358221220caaa7b674070bf493f11901df5ffbe0bcc8e7951bcfa50da4e4f178bf794c22664736f6c634300081c0033",
  "linkReferences": {},
  "deployedLinkReferences": {},
  "immutableReferences": {},
  "inputSourceName": "project/contracts/MarketplaceNFT.sol",
  "buildInfoId": "solc-0_8_28-18d965492dcf61b0600a4f52aa19a53a2f5bf320"
}